{
  "contractName": "Dex",
  "abi": [
    {
      "anonymous": false,
      "inputs": [
        {
          "indexed": true,
          "internalType": "address",
          "name": "previousOwner",
          "type": "address"
        },
        {
          "indexed": true,
          "internalType": "address",
          "name": "newOwner",
          "type": "address"
        }
      ],
      "name": "OwnershipTransferred",
      "type": "event"
    },
    {
      "inputs": [
        {
          "internalType": "bytes32",
          "name": "ticker",
          "type": "bytes32"
        },
        {
          "internalType": "address",
          "name": "tokenAddress",
          "type": "address"
        }
      ],
      "name": "addToken",
      "outputs": [],
      "stateMutability": "nonpayable",
      "type": "function"
    },
    {
      "inputs": [
        {
          "internalType": "address",
          "name": "",
          "type": "address"
        },
        {
          "internalType": "bytes32",
          "name": "",
          "type": "bytes32"
        }
      ],
      "name": "balances",
      "outputs": [
        {
          "internalType": "uint256",
          "name": "",
          "type": "uint256"
        }
      ],
      "stateMutability": "view",
      "type": "function",
      "constant": true
    },
    {
      "inputs": [
        {
          "internalType": "uint256",
          "name": "amount",
          "type": "uint256"
        },
        {
          "internalType": "bytes32",
          "name": "ticker",
          "type": "bytes32"
        }
      ],
      "name": "deposit",
      "outputs": [],
      "stateMutability": "nonpayable",
      "type": "function"
    },
    {
      "inputs": [],
      "name": "depositEth",
      "outputs": [],
      "stateMutability": "payable",
      "type": "function",
      "payable": true
    },
    {
      "inputs": [
        {
          "internalType": "address",
          "name": "owner",
          "type": "address"
        },
        {
          "internalType": "bytes32",
          "name": "ticker",
          "type": "bytes32"
        }
      ],
      "name": "getBalance",
      "outputs": [
        {
          "internalType": "uint256",
          "name": "",
          "type": "uint256"
        }
      ],
      "stateMutability": "view",
      "type": "function",
      "constant": true
    },
    {
      "inputs": [],
      "name": "getTokenList",
      "outputs": [
        {
          "internalType": "bytes32[]",
          "name": "",
          "type": "bytes32[]"
        }
      ],
      "stateMutability": "view",
      "type": "function",
      "constant": true
    },
    {
      "inputs": [],
      "name": "nextOrderId",
      "outputs": [
        {
          "internalType": "uint256",
          "name": "",
          "type": "uint256"
        }
      ],
      "stateMutability": "view",
      "type": "function",
      "constant": true
    },
    {
      "inputs": [
        {
          "internalType": "bytes32",
          "name": "",
          "type": "bytes32"
        },
        {
          "internalType": "uint256",
          "name": "",
          "type": "uint256"
        },
        {
          "internalType": "uint256",
          "name": "",
          "type": "uint256"
        }
      ],
      "name": "orderBook",
      "outputs": [
        {
          "internalType": "uint256",
          "name": "id",
          "type": "uint256"
        },
        {
          "internalType": "address",
          "name": "trader",
          "type": "address"
        },
        {
          "internalType": "enum Dex.Side",
          "name": "side",
          "type": "uint8"
        },
        {
          "internalType": "bytes32",
          "name": "ticker",
          "type": "bytes32"
        },
        {
          "internalType": "uint256",
          "name": "amount",
          "type": "uint256"
        },
        {
          "internalType": "uint256",
          "name": "price",
          "type": "uint256"
        }
      ],
      "stateMutability": "view",
      "type": "function",
      "constant": true
    },
    {
      "inputs": [],
      "name": "owner",
      "outputs": [
        {
          "internalType": "address",
          "name": "",
          "type": "address"
        }
      ],
      "stateMutability": "view",
      "type": "function",
      "constant": true
    },
    {
      "inputs": [],
      "name": "renounceOwnership",
      "outputs": [],
      "stateMutability": "nonpayable",
      "type": "function"
    },
    {
      "inputs": [
        {
          "internalType": "uint256",
          "name": "",
          "type": "uint256"
        }
      ],
      "name": "tokenList",
      "outputs": [
        {
          "internalType": "bytes32",
          "name": "",
          "type": "bytes32"
        }
      ],
      "stateMutability": "view",
      "type": "function",
      "constant": true
    },
    {
      "inputs": [
        {
          "internalType": "bytes32",
          "name": "",
          "type": "bytes32"
        }
      ],
      "name": "tokenMapping",
      "outputs": [
        {
          "internalType": "bytes32",
          "name": "ticker",
          "type": "bytes32"
        },
        {
          "internalType": "address",
          "name": "tokenAddress",
          "type": "address"
        }
      ],
      "stateMutability": "view",
      "type": "function",
      "constant": true
    },
    {
      "inputs": [
        {
          "internalType": "address",
          "name": "newOwner",
          "type": "address"
        }
      ],
      "name": "transferOwnership",
      "outputs": [],
      "stateMutability": "nonpayable",
      "type": "function"
    },
    {
      "inputs": [
        {
          "internalType": "uint256",
          "name": "amount",
          "type": "uint256"
        },
        {
          "internalType": "bytes32",
          "name": "ticker",
          "type": "bytes32"
        }
      ],
      "name": "withdraw",
      "outputs": [],
      "stateMutability": "nonpayable",
      "type": "function"
    },
    {
      "inputs": [
        {
          "internalType": "uint256",
          "name": "amount",
          "type": "uint256"
        }
      ],
      "name": "withdrawEth",
      "outputs": [],
      "stateMutability": "nonpayable",
      "type": "function"
    },
    {
      "inputs": [
        {
          "internalType": "bytes32",
          "name": "ticker",
          "type": "bytes32"
        },
        {
          "internalType": "enum Dex.Side",
          "name": "side",
          "type": "uint8"
        }
      ],
      "name": "getOrderBook",
      "outputs": [
        {
          "components": [
            {
              "internalType": "uint256",
              "name": "id",
              "type": "uint256"
            },
            {
              "internalType": "address",
              "name": "trader",
              "type": "address"
            },
            {
              "internalType": "enum Dex.Side",
              "name": "side",
              "type": "uint8"
            },
            {
              "internalType": "bytes32",
              "name": "ticker",
              "type": "bytes32"
            },
            {
              "internalType": "uint256",
              "name": "amount",
              "type": "uint256"
            },
            {
              "internalType": "uint256",
              "name": "price",
              "type": "uint256"
            }
          ],
          "internalType": "struct Dex.Order[]",
          "name": "",
          "type": "tuple[]"
        }
      ],
      "stateMutability": "view",
      "type": "function",
      "constant": true
    },
    {
      "inputs": [
        {
          "internalType": "enum Dex.Side",
          "name": "side",
          "type": "uint8"
        },
        {
          "internalType": "bytes32",
          "name": "ticker",
          "type": "bytes32"
        },
        {
          "internalType": "uint256",
          "name": "amount",
          "type": "uint256"
        },
        {
          "internalType": "uint256",
          "name": "price",
          "type": "uint256"
        }
      ],
      "name": "createLimitOrder",
      "outputs": [],
      "stateMutability": "nonpayable",
      "type": "function"
    },
    {
      "inputs": [
        {
          "internalType": "enum Dex.Side",
          "name": "side",
          "type": "uint8"
        },
        {
          "internalType": "bytes32",
          "name": "ticker",
          "type": "bytes32"
        },
        {
          "internalType": "uint256",
          "name": "amount",
          "type": "uint256"
        }
      ],
      "name": "createMarketOrder",
      "outputs": [
        {
          "components": [
            {
              "internalType": "uint256",
              "name": "amount",
              "type": "uint256"
            },
            {
              "internalType": "uint256",
              "name": "price",
              "type": "uint256"
            }
          ],
          "internalType": "struct Dex.filledOrder[]",
          "name": "ordersFilled",
          "type": "tuple[]"
        }
      ],
      "stateMutability": "view",
      "type": "function",
      "constant": true
    }
  ],
  "bytecode": "0x608060405260006004553480156200001657600080fd5b50600062000029620000cd60201b60201c565b9050806000806101000a81548173ffffffffffffffffffffffffffffffffffffffff021916908373ffffffffffffffffffffffffffffffffffffffff1602179055508073ffffffffffffffffffffffffffffffffffffffff16600073ffffffffffffffffffffffffffffffffffffffff167f8be0079c531659141344cd1fd0a4f28419497f9722a3daafe3b4186f6b6457e060405160405180910390a350620000d5565b600033905090565b6133ec80620000e56000396000f3fe6080604052600436106101095760003560e01c80639776aacf11610095578063ba58ea6811610064578063ba58ea6814610362578063c311d0491461039f578063c79d5ec5146103c8578063c9630cb014610405578063f2fde38b1461042e57610109565b80639776aacf1461029657806399ec2f1c146102bf5780639ead7222146102fc578063a8d2021a1461033957610109565b8063439370b1116100dc578063439370b1146101e3578063667cb4ba146101ed5780636f3b62f91461022b578063715018a6146102545780638da5cb5b1461026b57610109565b80630bb431b61461010e5780631f14df6914610150578063273cbaa01461018d5780632a58b330146101b8575b600080fd5b34801561011a57600080fd5b5061013560048036038101906101309190612717565b610457565b60405161014796959493929190612e4e565b60405180910390f35b34801561015c57600080fd5b5061017760048036038101906101729190612611565b6104ea565b6040516101849190612e33565b60405180910390f35b34801561019957600080fd5b506101a261050f565b6040516101af9190612ca9565b60405180910390f35b3480156101c457600080fd5b506101cd610567565b6040516101da9190612e33565b60405180910390f35b6101eb61056d565b005b3480156101f957600080fd5b50610214600480360381019061020f9190612676565b610666565b604051610222929190612d2a565b60405180910390f35b34801561023757600080fd5b50610252600480360381019061024d91906127b5565b6106aa565b005b34801561026057600080fd5b506102696115c0565b005b34801561027757600080fd5b506102806116fa565b60405161028d9190612c2e565b60405180910390f35b3480156102a257600080fd5b506102bd60048036038101906102b8919061269f565b611723565b005b3480156102cb57600080fd5b506102e660048036038101906102e19190612766565b61185e565b6040516102f39190612ced565b60405180910390f35b34801561030857600080fd5b50610323600480360381019061031e9190612818565b611a53565b6040516103309190612d0f565b60405180910390f35b34801561034557600080fd5b50610360600480360381019061035b9190612841565b611a77565b005b34801561036e57600080fd5b50610389600480360381019061038491906126db565b611d31565b6040516103969190612ccb565b60405180910390f35b3480156103ab57600080fd5b506103c660048036038101906103c19190612818565b611ef2565b005b3480156103d457600080fd5b506103ef60048036038101906103ea9190612611565b612108565b6040516103fc9190612e33565b60405180910390f35b34801561041157600080fd5b5061042c60048036038101906104279190612841565b612163565b005b34801561043a57600080fd5b50610455600480360381019061045091906125e8565b61238c565b005b6005602052826000526040600020602052816000526040600020818154811061047f57600080fd5b906000526020600020906005020160009250925050508060000154908060010160009054906101000a900473ffffffffffffffffffffffffffffffffffffffff16908060010160149054906101000a900460ff16908060020154908060030154908060040154905086565b6003602052816000526040600020602052806000526040600020600091509150505481565b6060600280548060200260200160405190810160405280929190818152602001828054801561055d57602002820191906000526020600020905b815481526020019060010190808311610549575b5050505050905090565b60045481565b6105f034600360003373ffffffffffffffffffffffffffffffffffffffff1673ffffffffffffffffffffffffffffffffffffffff16815260200190815260200160002060007f455448000000000000000000000000000000000000000000000000000000000081526020019081526020016000205461253590919063ffffffff16565b600360003373ffffffffffffffffffffffffffffffffffffffff1673ffffffffffffffffffffffffffffffffffffffff16815260200190815260200160002060007f4554480000000000000000000000000000000000000000000000000000000000815260200190815260200160002081905550565b60016020528060005260406000206000915090508060000154908060010160009054906101000a900473ffffffffffffffffffffffffffffffffffffffff16905082565b600060018111156106e4577f4e487b7100000000000000000000000000000000000000000000000000000000600052602160045260246000fd5b84600181111561071d577f4e487b7100000000000000000000000000000000000000000000000000000000600052602160045260246000fd5b14156107ed57610736818361254b90919063ffffffff16565b600360003373ffffffffffffffffffffffffffffffffffffffff1673ffffffffffffffffffffffffffffffffffffffff16815260200190815260200160002060007f455448000000000000000000000000000000000000000000000000000000000081526020019081526020016000205410156107e8576040517f08c379a00000000000000000000000000000000000000000000000000000000081526004016107df90612e13565b60405180910390fd5b6108fa565b600180811115610826577f4e487b7100000000000000000000000000000000000000000000000000000000600052602160045260246000fd5b84600181111561085f577f4e487b7100000000000000000000000000000000000000000000000000000000600052602160045260246000fd5b14156108f95781600360003373ffffffffffffffffffffffffffffffffffffffff1673ffffffffffffffffffffffffffffffffffffffff16815260200190815260200160002060008581526020019081526020016000205410156108f8576040517f08c379a00000000000000000000000000000000000000000000000000000000081526004016108ef90612db3565b60405180910390fd5b5b5b600060056000858152602001908152602001600020600086600181111561094a577f4e487b7100000000000000000000000000000000000000000000000000000000600052602160045260246000fd5b81526020019081526020016000209050806040518060c0016040528060045481526020013373ffffffffffffffffffffffffffffffffffffffff1681526020018760018111156109c3577f4e487b7100000000000000000000000000000000000000000000000000000000600052602160045260246000fd5b81526020018681526020018581526020018481525090806001815401808255809150506001900390600052602060002090600502016000909190919091506000820151816000015560208201518160010160006101000a81548173ffffffffffffffffffffffffffffffffffffffff021916908373ffffffffffffffffffffffffffffffffffffffff16021790555060408201518160010160146101000a81548160ff02191690836001811115610aa3577f4e487b7100000000000000000000000000000000000000000000000000000000600052602160045260246000fd5b0217905550606082015181600201556080820151816003015560a08201518160040155505060006001811115610b02577f4e487b7100000000000000000000000000000000000000000000000000000000600052602160045260246000fd5b856001811115610b3b577f4e487b7100000000000000000000000000000000000000000000000000000000600052602160045260246000fd5b141561103557600060018280549050610b549190613026565b90505b60018110611033576001828054905011610b7057611033565b81600182610b7e9190613026565b81548110610bb5577f4e487b7100000000000000000000000000000000000000000000000000000000600052603260045260246000fd5b906000526020600020906005020160040154828281548110610c00577f4e487b7100000000000000000000000000000000000000000000000000000000600052603260045260246000fd5b906000526020600020906005020160040154111561102057600082600183610c289190613026565b81548110610c5f577f4e487b7100000000000000000000000000000000000000000000000000000000600052603260045260246000fd5b90600052602060002090600502016040518060c0016040529081600082015481526020016001820160009054906101000a900473ffffffffffffffffffffffffffffffffffffffff1673ffffffffffffffffffffffffffffffffffffffff1673ffffffffffffffffffffffffffffffffffffffff1681526020016001820160149054906101000a900460ff166001811115610d23577f4e487b7100000000000000000000000000000000000000000000000000000000600052602160045260246000fd5b6001811115610d5b577f4e487b7100000000000000000000000000000000000000000000000000000000600052602160045260246000fd5b815260200160028201548152602001600382015481526020016004820154815250509050828281548110610db8577f4e487b7100000000000000000000000000000000000000000000000000000000600052603260045260246000fd5b906000526020600020906005020183600184610dd49190613026565b81548110610e0b577f4e487b7100000000000000000000000000000000000000000000000000000000600052603260045260246000fd5b9060005260206000209060050201600082015481600001556001820160009054906101000a900473ffffffffffffffffffffffffffffffffffffffff168160010160006101000a81548173ffffffffffffffffffffffffffffffffffffffff021916908373ffffffffffffffffffffffffffffffffffffffff1602179055506001820160149054906101000a900460ff168160010160146101000a81548160ff02191690836001811115610ee8577f4e487b7100000000000000000000000000000000000000000000000000000000600052602160045260246000fd5b021790555060028201548160020155600382015481600301556004820154816004015590505080838381548110610f48577f4e487b7100000000000000000000000000000000000000000000000000000000600052603260045260246000fd5b90600052602060002090600502016000820151816000015560208201518160010160006101000a81548173ffffffffffffffffffffffffffffffffffffffff021916908373ffffffffffffffffffffffffffffffffffffffff16021790555060408201518160010160146101000a81548160ff02191690836001811115610ff8577f4e487b7100000000000000000000000000000000000000000000000000000000600052602160045260246000fd5b0217905550606082015181600201556080820151816003015560a08201518160040155905050505b808061102b906130d1565b915050610b57565b505b60018081111561106e577f4e487b7100000000000000000000000000000000000000000000000000000000600052602160045260246000fd5b8560018111156110a7577f4e487b7100000000000000000000000000000000000000000000000000000000600052602160045260246000fd5b14156115a1576000600182805490506110c09190613026565b90505b6001811061159f5760018280549050116110dc5761159f565b816001826110ea9190613026565b81548110611121577f4e487b7100000000000000000000000000000000000000000000000000000000600052603260045260246000fd5b90600052602060002090600502016004015482828154811061116c577f4e487b7100000000000000000000000000000000000000000000000000000000600052603260045260246000fd5b906000526020600020906005020160040154101561158c576000826001836111949190613026565b815481106111cb577f4e487b7100000000000000000000000000000000000000000000000000000000600052603260045260246000fd5b90600052602060002090600502016040518060c0016040529081600082015481526020016001820160009054906101000a900473ffffffffffffffffffffffffffffffffffffffff1673ffffffffffffffffffffffffffffffffffffffff1673ffffffffffffffffffffffffffffffffffffffff1681526020016001820160149054906101000a900460ff16600181111561128f577f4e487b7100000000000000000000000000000000000000000000000000000000600052602160045260246000fd5b60018111156112c7577f4e487b7100000000000000000000000000000000000000000000000000000000600052602160045260246000fd5b815260200160028201548152602001600382015481526020016004820154815250509050828281548110611324577f4e487b7100000000000000000000000000000000000000000000000000000000600052603260045260246000fd5b9060005260206000209060050201836001846113409190613026565b81548110611377577f4e487b7100000000000000000000000000000000000000000000000000000000600052603260045260246000fd5b9060005260206000209060050201600082015481600001556001820160009054906101000a900473ffffffffffffffffffffffffffffffffffffffff168160010160006101000a81548173ffffffffffffffffffffffffffffffffffffffff021916908373ffffffffffffffffffffffffffffffffffffffff1602179055506001820160149054906101000a900460ff168160010160146101000a81548160ff02191690836001811115611454577f4e487b7100000000000000000000000000000000000000000000000000000000600052602160045260246000fd5b0217905550600282015481600201556003820154816003015560048201548160040155905050808383815481106114b4577f4e487b7100000000000000000000000000000000000000000000000000000000600052603260045260246000fd5b90600052602060002090600502016000820151816000015560208201518160010160006101000a81548173ffffffffffffffffffffffffffffffffffffffff021916908373ffffffffffffffffffffffffffffffffffffffff16021790555060408201518160010160146101000a81548160ff02191690836001811115611564577f4e487b7100000000000000000000000000000000000000000000000000000000600052602160045260246000fd5b0217905550606082015181600201556080820151816003015560a08201518160040155905050505b8080611597906130d1565b9150506110c3565b505b600460008154809291906115b4906130fb565b91905055505050505050565b6115c8612561565b73ffffffffffffffffffffffffffffffffffffffff166115e66116fa565b73ffffffffffffffffffffffffffffffffffffffff161461163c576040517f08c379a000000000000000000000000000000000000000000000000000000000815260040161163390612dd3565b60405180910390fd5b600073ffffffffffffffffffffffffffffffffffffffff1660008054906101000a900473ffffffffffffffffffffffffffffffffffffffff1673ffffffffffffffffffffffffffffffffffffffff167f8be0079c531659141344cd1fd0a4f28419497f9722a3daafe3b4186f6b6457e060405160405180910390a360008060006101000a81548173ffffffffffffffffffffffffffffffffffffffff021916908373ffffffffffffffffffffffffffffffffffffffff160217905550565b60008060009054906101000a900473ffffffffffffffffffffffffffffffffffffffff16905090565b61172b612561565b73ffffffffffffffffffffffffffffffffffffffff166117496116fa565b73ffffffffffffffffffffffffffffffffffffffff161461179f576040517f08c379a000000000000000000000000000000000000000000000000000000000815260040161179690612dd3565b60405180910390fd5b60405180604001604052808381526020018273ffffffffffffffffffffffffffffffffffffffff16815250600160008481526020019081526020016000206000820151816000015560208201518160010160006101000a81548173ffffffffffffffffffffffffffffffffffffffff021916908373ffffffffffffffffffffffffffffffffffffffff16021790555090505060028290806001815401808255809150506001900390600052602060002001600090919091909150555050565b60606000600181111561189a577f4e487b7100000000000000000000000000000000000000000000000000000000600052602160045260246000fd5b8460018111156118d3577f4e487b7100000000000000000000000000000000000000000000000000000000600052602160045260246000fd5b14156118de576119b5565b600180811115611917577f4e487b7100000000000000000000000000000000000000000000000000000000600052602160045260246000fd5b846001811115611950577f4e487b7100000000000000000000000000000000000000000000000000000000600052602160045260246000fd5b14156119b45781600360003373ffffffffffffffffffffffffffffffffffffffff1673ffffffffffffffffffffffffffffffffffffffff16815260200190815260200160002060008581526020019081526020016000205410156119b357600080fd5b5b5b81816000815181106119f0577f4e487b7100000000000000000000000000000000000000000000000000000000600052603260045260246000fd5b60200260200101516000018181525050600a81600081518110611a3c577f4e487b7100000000000000000000000000000000000000000000000000000000600052603260045260246000fd5b602002602001015160200181815250509392505050565b60028181548110611a6357600080fd5b906000526020600020016000915090505481565b80600073ffffffffffffffffffffffffffffffffffffffff166001600083815260200190815260200160002060010160009054906101000a900473ffffffffffffffffffffffffffffffffffffffff1673ffffffffffffffffffffffffffffffffffffffff161415611b1e576040517f08c379a0000000000000000000000000000000000000000000000000000000008152600401611b1590612d93565b60405180910390fd5b82600360003373ffffffffffffffffffffffffffffffffffffffff1673ffffffffffffffffffffffffffffffffffffffff1681526020019081526020016000206000848152602001908152602001600020541015611bb1576040517f08c379a0000000000000000000000000000000000000000000000000000000008152600401611ba890612df3565b60405180910390fd5b611c1483600360003373ffffffffffffffffffffffffffffffffffffffff1673ffffffffffffffffffffffffffffffffffffffff16815260200190815260200160002060008581526020019081526020016000205461256990919063ffffffff16565b600360003373ffffffffffffffffffffffffffffffffffffffff1673ffffffffffffffffffffffffffffffffffffffff1681526020019081526020016000206000848152602001908152602001600020819055506001600083815260200190815260200160002060010160009054906101000a900473ffffffffffffffffffffffffffffffffffffffff1673ffffffffffffffffffffffffffffffffffffffff1663a9059cbb33856040518363ffffffff1660e01b8152600401611cd9929190612c80565b602060405180830381600087803b158015611cf357600080fd5b505af1158015611d07573d6000803e3d6000fd5b505050506040513d601f19601f82011682018060405250810190611d2b919061264d565b50505050565b6060600560008481526020019081526020016000206000836001811115611d81577f4e487b7100000000000000000000000000000000000000000000000000000000600052602160045260246000fd5b8152602001908152602001600020805480602002602001604051908101604052809291908181526020016000905b82821015611ee657838290600052602060002090600502016040518060c0016040529081600082015481526020016001820160009054906101000a900473ffffffffffffffffffffffffffffffffffffffff1673ffffffffffffffffffffffffffffffffffffffff1673ffffffffffffffffffffffffffffffffffffffff1681526020016001820160149054906101000a900460ff166001811115611e7d577f4e487b7100000000000000000000000000000000000000000000000000000000600052602160045260246000fd5b6001811115611eb5577f4e487b7100000000000000000000000000000000000000000000000000000000600052602160045260246000fd5b8152602001600282015481526020016003820154815260200160048201548152505081526020019060010190611daf565b50505050905092915050565b80600360003373ffffffffffffffffffffffffffffffffffffffff1673ffffffffffffffffffffffffffffffffffffffff16815260200190815260200160002060007f45544800000000000000000000000000000000000000000000000000000000008152602001908152602001600020541015611fa5576040517f08c379a0000000000000000000000000000000000000000000000000000000008152600401611f9c90612d73565b60405180910390fd5b61202881600360003373ffffffffffffffffffffffffffffffffffffffff1673ffffffffffffffffffffffffffffffffffffffff16815260200190815260200160002060007f455448000000000000000000000000000000000000000000000000000000000081526020019081526020016000205461256990919063ffffffff16565b600360003373ffffffffffffffffffffffffffffffffffffffff1673ffffffffffffffffffffffffffffffffffffffff16815260200190815260200160002060007f45544800000000000000000000000000000000000000000000000000000000008152602001908152602001600020819055503373ffffffffffffffffffffffffffffffffffffffff16816040516120c090612c19565b60006040518083038185875af1925050503d80600081146120fd576040519150601f19603f3d011682016040523d82523d6000602084013e612102565b606091505b50505050565b6000600360008473ffffffffffffffffffffffffffffffffffffffff1673ffffffffffffffffffffffffffffffffffffffff168152602001908152602001600020600083815260200190815260200160002054905092915050565b80600073ffffffffffffffffffffffffffffffffffffffff166001600083815260200190815260200160002060010160009054906101000a900473ffffffffffffffffffffffffffffffffffffffff1673ffffffffffffffffffffffffffffffffffffffff16141561220a576040517f08c379a000000000000000000000000000000000000000000000000000000000815260040161220190612d93565b60405180910390fd5b6001600083815260200190815260200160002060010160009054906101000a900473ffffffffffffffffffffffffffffffffffffffff1673ffffffffffffffffffffffffffffffffffffffff166323b872dd3330866040518463ffffffff1660e01b815260040161227d93929190612c49565b602060405180830381600087803b15801561229757600080fd5b505af11580156122ab573d6000803e3d6000fd5b505050506040513d601f19601f820116820180604052508101906122cf919061264d565b5061233383600360003373ffffffffffffffffffffffffffffffffffffffff1673ffffffffffffffffffffffffffffffffffffffff16815260200190815260200160002060008581526020019081526020016000205461253590919063ffffffff16565b600360003373ffffffffffffffffffffffffffffffffffffffff1673ffffffffffffffffffffffffffffffffffffffff168152602001908152602001600020600084815260200190815260200160002081905550505050565b612394612561565b73ffffffffffffffffffffffffffffffffffffffff166123b26116fa565b73ffffffffffffffffffffffffffffffffffffffff1614612408576040517f08c379a00000000000000000000000000000000000000000000000000000000081526004016123ff90612dd3565b60405180910390fd5b600073ffffffffffffffffffffffffffffffffffffffff168173ffffffffffffffffffffffffffffffffffffffff161415612478576040517f08c379a000000000000000000000000000000000000000000000000000000000815260040161246f90612d53565b60405180910390fd5b8073ffffffffffffffffffffffffffffffffffffffff1660008054906101000a900473ffffffffffffffffffffffffffffffffffffffff1673ffffffffffffffffffffffffffffffffffffffff167f8be0079c531659141344cd1fd0a4f28419497f9722a3daafe3b4186f6b6457e060405160405180910390a3806000806101000a81548173ffffffffffffffffffffffffffffffffffffffff021916908373ffffffffffffffffffffffffffffffffffffffff16021790555050565b600081836125439190612f76565b905092915050565b600081836125599190612fcc565b905092915050565b600033905090565b600081836125779190613026565b905092915050565b60008135905061258e8161334a565b92915050565b6000815190506125a381613361565b92915050565b6000813590506125b881613378565b92915050565b6000813590506125cd8161338f565b92915050565b6000813590506125e28161339f565b92915050565b6000602082840312156125fa57600080fd5b60006126088482850161257f565b91505092915050565b6000806040838503121561262457600080fd5b60006126328582860161257f565b9250506020612643858286016125a9565b9150509250929050565b60006020828403121561265f57600080fd5b600061266d84828501612594565b91505092915050565b60006020828403121561268857600080fd5b6000612696848285016125a9565b91505092915050565b600080604083850312156126b257600080fd5b60006126c0858286016125a9565b92505060206126d18582860161257f565b9150509250929050565b600080604083850312156126ee57600080fd5b60006126fc858286016125a9565b925050602061270d858286016125be565b9150509250929050565b60008060006060848603121561272c57600080fd5b600061273a868287016125a9565b935050602061274b868287016125d3565b925050604061275c868287016125d3565b9150509250925092565b60008060006060848603121561277b57600080fd5b6000612789868287016125be565b935050602061279a868287016125a9565b92505060406127ab868287016125d3565b9150509250925092565b600080600080608085870312156127cb57600080fd5b60006127d9878288016125be565b94505060206127ea878288016125a9565b93505060406127fb878288016125d3565b925050606061280c878288016125d3565b91505092959194509250565b60006020828403121561282a57600080fd5b6000612838848285016125d3565b91505092915050565b6000806040838503121561285457600080fd5b6000612862858286016125d3565b9250506020612873858286016125a9565b9150509250929050565b600061288983836129fd565b60208301905092915050565b60006128a18383612b51565b60c08301905092915050565b60006128b98383612bcc565b60408301905092915050565b6128ce8161305a565b82525050565b6128dd8161305a565b82525050565b60006128ee82612edf565b6128f88185612f27565b935061290383612eaf565b8060005b8381101561293457815161291b888261287d565b975061292683612f00565b925050600181019050612907565b5085935050505092915050565b600061294c82612eea565b6129568185612f38565b935061296183612ebf565b8060005b838110156129925781516129798882612895565b975061298483612f0d565b925050600181019050612965565b5085935050505092915050565b60006129aa82612ef5565b6129b48185612f49565b93506129bf83612ecf565b8060005b838110156129f05781516129d788826128ad565b97506129e283612f1a565b9250506001810190506129c3565b5085935050505092915050565b612a0681613078565b82525050565b612a1581613078565b82525050565b612a24816130bf565b82525050565b612a33816130bf565b82525050565b6000612a46602683612f65565b9150612a51826131a2565b604082019050919050565b6000612a69601483612f65565b9150612a74826131f1565b602082019050919050565b6000612a8c601483612f65565b9150612a978261321a565b602082019050919050565b6000612aaf602f83612f65565b9150612aba82613243565b604082019050919050565b6000612ad2602083612f65565b9150612add82613292565b602082019050919050565b6000612af5601683612f65565b9150612b00826132bb565b602082019050919050565b6000612b18600083612f5a565b9150612b23826132e4565b600082019050919050565b6000612b3b602283612f65565b9150612b46826132e7565b604082019050919050565b60c082016000820151612b676000850182612bfb565b506020820151612b7a60208501826128c5565b506040820151612b8d6040850182612a1b565b506060820151612ba060608501826129fd565b506080820151612bb36080850182612bfb565b5060a0820151612bc660a0850182612bfb565b50505050565b604082016000820151612be26000850182612bfb565b506020820151612bf56020850182612bfb565b50505050565b612c04816130b5565b82525050565b612c13816130b5565b82525050565b6000612c2482612b0b565b9150819050919050565b6000602082019050612c4360008301846128d4565b92915050565b6000606082019050612c5e60008301866128d4565b612c6b60208301856128d4565b612c786040830184612c0a565b949350505050565b6000604082019050612c9560008301856128d4565b612ca26020830184612c0a565b9392505050565b60006020820190508181036000830152612cc381846128e3565b905092915050565b60006020820190508181036000830152612ce58184612941565b905092915050565b60006020820190508181036000830152612d07818461299f565b905092915050565b6000602082019050612d246000830184612a0c565b92915050565b6000604082019050612d3f6000830185612a0c565b612d4c60208301846128d4565b9392505050565b60006020820190508181036000830152612d6c81612a39565b9050919050565b60006020820190508181036000830152612d8c81612a5c565b9050919050565b60006020820190508181036000830152612dac81612a7f565b9050919050565b60006020820190508181036000830152612dcc81612aa2565b9050919050565b60006020820190508181036000830152612dec81612ac5565b9050919050565b60006020820190508181036000830152612e0c81612ae8565b9050919050565b60006020820190508181036000830152612e2c81612b2e565b9050919050565b6000602082019050612e486000830184612c0a565b92915050565b600060c082019050612e636000830189612c0a565b612e7060208301886128d4565b612e7d6040830187612a2a565b612e8a6060830186612a0c565b612e976080830185612c0a565b612ea460a0830184612c0a565b979650505050505050565b6000819050602082019050919050565b6000819050602082019050919050565b6000819050602082019050919050565b600081519050919050565b600081519050919050565b600081519050919050565b6000602082019050919050565b6000602082019050919050565b6000602082019050919050565b600082825260208201905092915050565b600082825260208201905092915050565b600082825260208201905092915050565b600081905092915050565b600082825260208201905092915050565b6000612f81826130b5565b9150612f8c836130b5565b9250827fffffffffffffffffffffffffffffffffffffffffffffffffffffffffffffffff03821115612fc157612fc0613144565b5b828201905092915050565b6000612fd7826130b5565b9150612fe2836130b5565b9250817fffffffffffffffffffffffffffffffffffffffffffffffffffffffffffffffff048311821515161561301b5761301a613144565b5b828202905092915050565b6000613031826130b5565b915061303c836130b5565b92508282101561304f5761304e613144565b5b828203905092915050565b600061306582613095565b9050919050565b60008115159050919050565b6000819050919050565b600081905061309082613336565b919050565b600073ffffffffffffffffffffffffffffffffffffffff82169050919050565b6000819050919050565b60006130ca82613082565b9050919050565b60006130dc826130b5565b915060008214156130f0576130ef613144565b5b600182039050919050565b6000613106826130b5565b91507fffffffffffffffffffffffffffffffffffffffffffffffffffffffffffffffff82141561313957613138613144565b5b600182019050919050565b7f4e487b7100000000000000000000000000000000000000000000000000000000600052601160045260246000fd5b7f4e487b7100000000000000000000000000000000000000000000000000000000600052602160045260246000fd5b7f4f776e61626c653a206e6577206f776e657220697320746865207a65726f206160008201527f6464726573730000000000000000000000000000000000000000000000000000602082015250565b7f496e73756666696369656e742062616c616e6365000000000000000000000000600082015250565b7f546f6b656e20646f6573206e6f74206578697374000000000000000000000000600082015250565b7f496e73756666696369656e74206f662074686174207469636b657220746f207060008201527f6c6163652073656c6c206f726465720000000000000000000000000000000000602082015250565b7f4f776e61626c653a2063616c6c6572206973206e6f7420746865206f776e6572600082015250565b7f42616c616e6365206e6f742073756666696369656e7400000000000000000000600082015250565b50565b7f496e737566666963656e742045544820746f20706c61636520627579206f726460008201527f6572000000000000000000000000000000000000000000000000000000000000602082015250565b6002811061334757613346613173565b5b50565b6133538161305a565b811461335e57600080fd5b50565b61336a8161306c565b811461337557600080fd5b50565b61338181613078565b811461338c57600080fd5b50565b6002811061339c57600080fd5b50565b6133a8816130b5565b81146133b357600080fd5b5056fea26469706673582212203a932bd8a53b9684d2d43db65e07c249d5bde6b11368b081f54e1895abeb304264736f6c63430008040033",
  "immutableReferences": {},
  "source": "pragma solidity ^0.8.0;\npragma experimental ABIEncoderV2;\n\nimport  \"./wallet.sol\";\n\ncontract Dex is Wallet {\n\n    using SafeMath for uint256;\n\n    //create this enum variable for what type of order it is\n    enum Side {\n        BUY, //corresponds to 0\n        SELL //corresponds to 1\n    }\n\n//create this struct for orders\n    struct Order {\n        uint id; //an id number for the order\n        address trader; //the trader who is putting in the order, I assume..\n        Side side;\n        bytes32 ticker; //what ticker am i buying\n        uint amount;\n        uint price;\n    }\n\n    struct filledOrder {\n        uint amount;\n        uint price;\n    }\n\n    //this variable counts up with each order so that we can assign unique id's to each order\n    uint public nextOrderId = 0; //don't really have to write the zero in, but have for clarity\n\n    //for each asset, have two order books, one for each side (buy/sell)\n    mapping(bytes32 => mapping(uint => Order[])) public orderBook; //should it be Side, not uint??\n\n    //just returns the order book for a specified token and side (buy or sell)\n    function getOrderBook(bytes32 ticker, Side side) view public returns(Order[] memory) {\n        return orderBook[ticker][uint(side)];\n    }\n\n    //function to create a limit order - from a particular sender\n    function createLimitOrder(Side side, bytes32 ticker, uint amount, uint price) public  { // we don't add market orders, they just take out of the book\n        //checks\n        if (side == Side.BUY){\n            require(balances[msg.sender][\"ETH\"] >= amount.mul(price), \"Insufficent ETH to place buy order\");\n        }\n        else if(side == Side.SELL){\n            require(balances[msg.sender][ticker] >= amount, \"Insufficient of that ticker to place sell order\");\n        }\n\n        //create a temporary list of all of the orders on one side of the market, and add our new limit order\n        Order[] storage orders = orderBook[ticker][uint(side)]; //list of orders - all buy or sell\n        orders.push(\n            Order(nextOrderId,msg.sender, side, ticker, amount, price)\n        );\n\n        //Bubble sort the order list to get our new order into the right position\n        if(side == Side.BUY){\n            for (uint i = orders.length-1; i >=1; i--) {\n                if (orders.length <= 1) {\n                    break;\n                    }\n                else if (orders[i].price > orders[i-1].price) {\n                    Order memory placeholder = orders[i-1];\n                    orders[i-1] = orders[i];\n                    orders[i] = placeholder;\n                }\n            }\n        }\n        if(side == Side.SELL) {\n            for (uint i = orders.length-1; i >=1; i--) {\n                if (orders.length <= 1) {\n                    break;\n                    }\n                else if (orders[i].price < orders[i-1].price) {\n                    Order memory placeholder = orders[i-1];\n                    orders[i-1] = orders[i];\n                    orders[i] = placeholder;\n                }\n            }\n        }\n\n        nextOrderId++; //increase the order ID counter\n    }\n\n    //function for creating a new market order\n    function createMarketOrder(Side side, bytes32 ticker, uint amount) public view returns (filledOrder[] memory ordersFilled) {\n        if (side == Side.BUY){\n            //require(balances[msg.sender][\"ETH\"] >= amount.mul(price)); - this will be more complex - no price\n        }\n        else if(side == Side.SELL){\n            //checks\n            require(balances[msg.sender][ticker] >= amount);\n        }\n    ordersFilled[0].amount = amount; //placeholder value for amount filled\n    ordersFilled[0].price = 10; //placheholder value for price filled at\n    }\n    \n}",
  "sourcePath": "/Users/richardjamieson/Documents/ethereum-201/Dex/contracts/dex.sol",
  "compiler": {
    "name": "solc",
    "version": "0.8.4+commit.c7e474f2.Emscripten.clang"
  },
  "schemaVersion": "3.3.4",
  "updatedAt": "2021-05-07T13:07:44.544Z",
  "networkType": "ethereum",
  "devdoc": {
    "kind": "dev",
    "methods": {
      "owner()": {
        "details": "Returns the address of the current owner."
      },
      "renounceOwnership()": {
        "details": "Leaves the contract without owner. It will not be possible to call `onlyOwner` functions anymore. Can only be called by the current owner. NOTE: Renouncing ownership will leave the contract without an owner, thereby removing any functionality that is only available to the owner."
      },
      "transferOwnership(address)": {
        "details": "Transfers ownership of the contract to a new account (`newOwner`). Can only be called by the current owner."
      }
    },
    "version": 1
  },
  "userdoc": {
    "kind": "user",
    "methods": {},
    "version": 1
  }
}