{
  "contractName": "Wallet",
  "abi": [
    {
      "anonymous": false,
      "inputs": [
        {
          "indexed": true,
          "internalType": "address",
          "name": "previousOwner",
          "type": "address"
        },
        {
          "indexed": true,
          "internalType": "address",
          "name": "newOwner",
          "type": "address"
        }
      ],
      "name": "OwnershipTransferred",
      "type": "event"
    },
    {
      "inputs": [
        {
          "internalType": "address",
          "name": "",
          "type": "address"
        },
        {
          "internalType": "bytes32",
          "name": "",
          "type": "bytes32"
        }
      ],
      "name": "balances",
      "outputs": [
        {
          "internalType": "uint256",
          "name": "",
          "type": "uint256"
        }
      ],
      "stateMutability": "view",
      "type": "function",
      "constant": true
    },
    {
      "inputs": [],
      "name": "owner",
      "outputs": [
        {
          "internalType": "address",
          "name": "",
          "type": "address"
        }
      ],
      "stateMutability": "view",
      "type": "function",
      "constant": true
    },
    {
      "inputs": [],
      "name": "renounceOwnership",
      "outputs": [],
      "stateMutability": "nonpayable",
      "type": "function"
    },
    {
      "inputs": [
        {
          "internalType": "uint256",
          "name": "",
          "type": "uint256"
        }
      ],
      "name": "tokenList",
      "outputs": [
        {
          "internalType": "bytes32",
          "name": "",
          "type": "bytes32"
        }
      ],
      "stateMutability": "view",
      "type": "function",
      "constant": true
    },
    {
      "inputs": [
        {
          "internalType": "bytes32",
          "name": "",
          "type": "bytes32"
        }
      ],
      "name": "tokenMapping",
      "outputs": [
        {
          "internalType": "bytes32",
          "name": "ticker",
          "type": "bytes32"
        },
        {
          "internalType": "address",
          "name": "tokenAddress",
          "type": "address"
        }
      ],
      "stateMutability": "view",
      "type": "function",
      "constant": true
    },
    {
      "inputs": [
        {
          "internalType": "address",
          "name": "newOwner",
          "type": "address"
        }
      ],
      "name": "transferOwnership",
      "outputs": [],
      "stateMutability": "nonpayable",
      "type": "function"
    },
    {
      "inputs": [
        {
          "internalType": "bytes32",
          "name": "ticker",
          "type": "bytes32"
        },
        {
          "internalType": "address",
          "name": "tokenAddress",
          "type": "address"
        }
      ],
      "name": "addToken",
      "outputs": [],
      "stateMutability": "nonpayable",
      "type": "function"
    },
    {
      "inputs": [
        {
          "internalType": "uint256",
          "name": "amount",
          "type": "uint256"
        },
        {
          "internalType": "bytes32",
          "name": "ticker",
          "type": "bytes32"
        }
      ],
      "name": "deposit",
      "outputs": [],
      "stateMutability": "nonpayable",
      "type": "function"
    },
    {
      "inputs": [
        {
          "internalType": "uint256",
          "name": "amount",
          "type": "uint256"
        },
        {
          "internalType": "bytes32",
          "name": "ticker",
          "type": "bytes32"
        }
      ],
      "name": "withdraw",
      "outputs": [],
      "stateMutability": "nonpayable",
      "type": "function"
    },
    {
      "inputs": [],
      "name": "depositEth",
      "outputs": [],
      "stateMutability": "payable",
      "type": "function",
      "payable": true
    },
    {
      "inputs": [
        {
          "internalType": "uint256",
          "name": "amount",
          "type": "uint256"
        }
      ],
      "name": "withdrawEth",
      "outputs": [],
      "stateMutability": "nonpayable",
      "type": "function"
    },
    {
      "inputs": [],
      "name": "getTokenList",
      "outputs": [
        {
          "internalType": "bytes32[]",
          "name": "",
          "type": "bytes32[]"
        }
      ],
      "stateMutability": "view",
      "type": "function",
      "constant": true
    },
    {
      "inputs": [
        {
          "internalType": "address",
          "name": "owner",
          "type": "address"
        },
        {
          "internalType": "bytes32",
          "name": "ticker",
          "type": "bytes32"
        }
      ],
      "name": "getBalance",
      "outputs": [
        {
          "internalType": "uint256",
          "name": "",
          "type": "uint256"
        }
      ],
      "stateMutability": "view",
      "type": "function",
      "constant": true
    }
  ],
  "bytecode": "0x608060405234801561001057600080fd5b5060006100216100c460201b60201c565b9050806000806101000a81548173ffffffffffffffffffffffffffffffffffffffff021916908373ffffffffffffffffffffffffffffffffffffffff1602179055508073ffffffffffffffffffffffffffffffffffffffff16600073ffffffffffffffffffffffffffffffffffffffff167f8be0079c531659141344cd1fd0a4f28419497f9722a3daafe3b4186f6b6457e060405160405180910390a3506100cc565b600033905090565b611876806100db6000396000f3fe6080604052600436106100c25760003560e01c80639776aacf1161007f578063c311d04911610059578063c311d04914610248578063c79d5ec514610271578063c9630cb0146102ae578063f2fde38b146102d7576100c2565b80639776aacf146101b95780639ead7222146101e2578063a8d2021a1461021f576100c2565b80631f14df69146100c7578063273cbaa014610104578063439370b11461012f578063667cb4ba14610139578063715018a6146101775780638da5cb5b1461018e575b600080fd5b3480156100d357600080fd5b506100ee60048036038101906100e9919061112a565b610300565b6040516100fb9190611573565b60405180910390f35b34801561011057600080fd5b50610119610325565b604051610126919061146d565b60405180910390f35b61013761037d565b005b34801561014557600080fd5b50610160600480360381019061015b919061118f565b610476565b60405161016e9291906114aa565b60405180910390f35b34801561018357600080fd5b5061018c6104ba565b005b34801561019a57600080fd5b506101a36105f4565b6040516101b091906113f2565b60405180910390f35b3480156101c557600080fd5b506101e060048036038101906101db91906111b8565b61061d565b005b3480156101ee57600080fd5b50610209600480360381019061020491906111f4565b610758565b604051610216919061148f565b60405180910390f35b34801561022b57600080fd5b506102466004803603810190610241919061121d565b61077c565b005b34801561025457600080fd5b5061026f600480360381019061026a91906111f4565b610a36565b005b34801561027d57600080fd5b506102986004803603810190610293919061112a565b610c4c565b6040516102a59190611573565b60405180910390f35b3480156102ba57600080fd5b506102d560048036038101906102d0919061121d565b610ca7565b005b3480156102e357600080fd5b506102fe60048036038101906102f99190611101565b610ed0565b005b6003602052816000526040600020602052806000526040600020600091509150505481565b6060600280548060200260200160405190810160405280929190818152602001828054801561037357602002820191906000526020600020905b81548152602001906001019080831161035f575b5050505050905090565b61040034600360003373ffffffffffffffffffffffffffffffffffffffff1673ffffffffffffffffffffffffffffffffffffffff16815260200190815260200160002060007f455448000000000000000000000000000000000000000000000000000000000081526020019081526020016000205461107990919063ffffffff16565b600360003373ffffffffffffffffffffffffffffffffffffffff1673ffffffffffffffffffffffffffffffffffffffff16815260200190815260200160002060007f4554480000000000000000000000000000000000000000000000000000000000815260200190815260200160002081905550565b60016020528060005260406000206000915090508060000154908060010160009054906101000a900473ffffffffffffffffffffffffffffffffffffffff16905082565b6104c261108f565b73ffffffffffffffffffffffffffffffffffffffff166104e06105f4565b73ffffffffffffffffffffffffffffffffffffffff1614610536576040517f08c379a000000000000000000000000000000000000000000000000000000000815260040161052d90611533565b60405180910390fd5b600073ffffffffffffffffffffffffffffffffffffffff1660008054906101000a900473ffffffffffffffffffffffffffffffffffffffff1673ffffffffffffffffffffffffffffffffffffffff167f8be0079c531659141344cd1fd0a4f28419497f9722a3daafe3b4186f6b6457e060405160405180910390a360008060006101000a81548173ffffffffffffffffffffffffffffffffffffffff021916908373ffffffffffffffffffffffffffffffffffffffff160217905550565b60008060009054906101000a900473ffffffffffffffffffffffffffffffffffffffff16905090565b61062561108f565b73ffffffffffffffffffffffffffffffffffffffff166106436105f4565b73ffffffffffffffffffffffffffffffffffffffff1614610699576040517f08c379a000000000000000000000000000000000000000000000000000000000815260040161069090611533565b60405180910390fd5b60405180604001604052808381526020018273ffffffffffffffffffffffffffffffffffffffff16815250600160008481526020019081526020016000206000820151816000015560208201518160010160006101000a81548173ffffffffffffffffffffffffffffffffffffffff021916908373ffffffffffffffffffffffffffffffffffffffff16021790555090505060028290806001815401808255809150506001900390600052602060002001600090919091909150555050565b6002818154811061076857600080fd5b906000526020600020016000915090505481565b80600073ffffffffffffffffffffffffffffffffffffffff166001600083815260200190815260200160002060010160009054906101000a900473ffffffffffffffffffffffffffffffffffffffff1673ffffffffffffffffffffffffffffffffffffffff161415610823576040517f08c379a000000000000000000000000000000000000000000000000000000000815260040161081a90611513565b60405180910390fd5b82600360003373ffffffffffffffffffffffffffffffffffffffff1673ffffffffffffffffffffffffffffffffffffffff16815260200190815260200160002060008481526020019081526020016000205410156108b6576040517f08c379a00000000000000000000000000000000000000000000000000000000081526004016108ad90611553565b60405180910390fd5b61091983600360003373ffffffffffffffffffffffffffffffffffffffff1673ffffffffffffffffffffffffffffffffffffffff16815260200190815260200160002060008581526020019081526020016000205461109790919063ffffffff16565b600360003373ffffffffffffffffffffffffffffffffffffffff1673ffffffffffffffffffffffffffffffffffffffff1681526020019081526020016000206000848152602001908152602001600020819055506001600083815260200190815260200160002060010160009054906101000a900473ffffffffffffffffffffffffffffffffffffffff1673ffffffffffffffffffffffffffffffffffffffff1663a9059cbb33856040518363ffffffff1660e01b81526004016109de929190611444565b602060405180830381600087803b1580156109f857600080fd5b505af1158015610a0c573d6000803e3d6000fd5b505050506040513d601f19601f82011682018060405250810190610a309190611166565b50505050565b80600360003373ffffffffffffffffffffffffffffffffffffffff1673ffffffffffffffffffffffffffffffffffffffff16815260200190815260200160002060007f45544800000000000000000000000000000000000000000000000000000000008152602001908152602001600020541015610ae9576040517f08c379a0000000000000000000000000000000000000000000000000000000008152600401610ae0906114f3565b60405180910390fd5b610b6c81600360003373ffffffffffffffffffffffffffffffffffffffff1673ffffffffffffffffffffffffffffffffffffffff16815260200190815260200160002060007f455448000000000000000000000000000000000000000000000000000000000081526020019081526020016000205461109790919063ffffffff16565b600360003373ffffffffffffffffffffffffffffffffffffffff1673ffffffffffffffffffffffffffffffffffffffff16815260200190815260200160002060007f45544800000000000000000000000000000000000000000000000000000000008152602001908152602001600020819055503373ffffffffffffffffffffffffffffffffffffffff1681604051610c04906113dd565b60006040518083038185875af1925050503d8060008114610c41576040519150601f19603f3d011682016040523d82523d6000602084013e610c46565b606091505b50505050565b6000600360008473ffffffffffffffffffffffffffffffffffffffff1673ffffffffffffffffffffffffffffffffffffffff168152602001908152602001600020600083815260200190815260200160002054905092915050565b80600073ffffffffffffffffffffffffffffffffffffffff166001600083815260200190815260200160002060010160009054906101000a900473ffffffffffffffffffffffffffffffffffffffff1673ffffffffffffffffffffffffffffffffffffffff161415610d4e576040517f08c379a0000000000000000000000000000000000000000000000000000000008152600401610d4590611513565b60405180910390fd5b6001600083815260200190815260200160002060010160009054906101000a900473ffffffffffffffffffffffffffffffffffffffff1673ffffffffffffffffffffffffffffffffffffffff166323b872dd3330866040518463ffffffff1660e01b8152600401610dc19392919061140d565b602060405180830381600087803b158015610ddb57600080fd5b505af1158015610def573d6000803e3d6000fd5b505050506040513d601f19601f82011682018060405250810190610e139190611166565b50610e7783600360003373ffffffffffffffffffffffffffffffffffffffff1673ffffffffffffffffffffffffffffffffffffffff16815260200190815260200160002060008581526020019081526020016000205461107990919063ffffffff16565b600360003373ffffffffffffffffffffffffffffffffffffffff1673ffffffffffffffffffffffffffffffffffffffff168152602001908152602001600020600084815260200190815260200160002081905550505050565b610ed861108f565b73ffffffffffffffffffffffffffffffffffffffff16610ef66105f4565b73ffffffffffffffffffffffffffffffffffffffff1614610f4c576040517f08c379a0000000000000000000000000000000000000000000000000000000008152600401610f4390611533565b60405180910390fd5b600073ffffffffffffffffffffffffffffffffffffffff168173ffffffffffffffffffffffffffffffffffffffff161415610fbc576040517f08c379a0000000000000000000000000000000000000000000000000000000008152600401610fb3906114d3565b60405180910390fd5b8073ffffffffffffffffffffffffffffffffffffffff1660008054906101000a900473ffffffffffffffffffffffffffffffffffffffff1673ffffffffffffffffffffffffffffffffffffffff167f8be0079c531659141344cd1fd0a4f28419497f9722a3daafe3b4186f6b6457e060405160405180910390a3806000806101000a81548173ffffffffffffffffffffffffffffffffffffffff021916908373ffffffffffffffffffffffffffffffffffffffff16021790555050565b6000818361108791906115e3565b905092915050565b600033905090565b600081836110a59190611639565b905092915050565b6000813590506110bc816117e4565b92915050565b6000815190506110d1816117fb565b92915050565b6000813590506110e681611812565b92915050565b6000813590506110fb81611829565b92915050565b60006020828403121561111357600080fd5b6000611121848285016110ad565b91505092915050565b6000806040838503121561113d57600080fd5b600061114b858286016110ad565b925050602061115c858286016110d7565b9150509250929050565b60006020828403121561117857600080fd5b6000611186848285016110c2565b91505092915050565b6000602082840312156111a157600080fd5b60006111af848285016110d7565b91505092915050565b600080604083850312156111cb57600080fd5b60006111d9858286016110d7565b92505060206111ea858286016110ad565b9150509250929050565b60006020828403121561120657600080fd5b6000611214848285016110ec565b91505092915050565b6000806040838503121561123057600080fd5b600061123e858286016110ec565b925050602061124f858286016110d7565b9150509250929050565b600061126583836112de565b60208301905092915050565b61127a8161166d565b82525050565b600061128b8261159e565b61129581856115b6565b93506112a08361158e565b8060005b838110156112d15781516112b88882611259565b97506112c3836115a9565b9250506001810190506112a4565b5085935050505092915050565b6112e78161168b565b82525050565b6112f68161168b565b82525050565b60006113096026836115d2565b9150611314826116ee565b604082019050919050565b600061132c6014836115d2565b91506113378261173d565b602082019050919050565b600061134f6014836115d2565b915061135a82611766565b602082019050919050565b60006113726020836115d2565b915061137d8261178f565b602082019050919050565b60006113956016836115d2565b91506113a0826117b8565b602082019050919050565b60006113b86000836115c7565b91506113c3826117e1565b600082019050919050565b6113d7816116b5565b82525050565b60006113e8826113ab565b9150819050919050565b60006020820190506114076000830184611271565b92915050565b60006060820190506114226000830186611271565b61142f6020830185611271565b61143c60408301846113ce565b949350505050565b60006040820190506114596000830185611271565b61146660208301846113ce565b9392505050565b600060208201905081810360008301526114878184611280565b905092915050565b60006020820190506114a460008301846112ed565b92915050565b60006040820190506114bf60008301856112ed565b6114cc6020830184611271565b9392505050565b600060208201905081810360008301526114ec816112fc565b9050919050565b6000602082019050818103600083015261150c8161131f565b9050919050565b6000602082019050818103600083015261152c81611342565b9050919050565b6000602082019050818103600083015261154c81611365565b9050919050565b6000602082019050818103600083015261156c81611388565b9050919050565b600060208201905061158860008301846113ce565b92915050565b6000819050602082019050919050565b600081519050919050565b6000602082019050919050565b600082825260208201905092915050565b600081905092915050565b600082825260208201905092915050565b60006115ee826116b5565b91506115f9836116b5565b9250827fffffffffffffffffffffffffffffffffffffffffffffffffffffffffffffffff0382111561162e5761162d6116bf565b5b828201905092915050565b6000611644826116b5565b915061164f836116b5565b925082821015611662576116616116bf565b5b828203905092915050565b600061167882611695565b9050919050565b60008115159050919050565b6000819050919050565b600073ffffffffffffffffffffffffffffffffffffffff82169050919050565b6000819050919050565b7f4e487b7100000000000000000000000000000000000000000000000000000000600052601160045260246000fd5b7f4f776e61626c653a206e6577206f776e657220697320746865207a65726f206160008201527f6464726573730000000000000000000000000000000000000000000000000000602082015250565b7f496e73756666696369656e742062616c616e6365000000000000000000000000600082015250565b7f546f6b656e20646f6573206e6f74206578697374000000000000000000000000600082015250565b7f4f776e61626c653a2063616c6c6572206973206e6f7420746865206f776e6572600082015250565b7f42616c616e6365206e6f742073756666696369656e7400000000000000000000600082015250565b50565b6117ed8161166d565b81146117f857600080fd5b50565b6118048161167f565b811461180f57600080fd5b50565b61181b8161168b565b811461182657600080fd5b50565b611832816116b5565b811461183d57600080fd5b5056fea2646970667358221220bce0c702fb46988610873a22cd1986fbdc966484ce06bdc65d7429c59b33baae64736f6c63430008040033",
  "immutableReferences": {},
  "source": "pragma solidity ^0.8.0;\n\nimport \"../node_modules/@openzeppelin/contracts/token/ERC20/IERC20.sol\"; //we need this interface so that we know how to interact with ERC20 tokens\nimport \"../node_modules/@openzeppelin/contracts/utils/math/SafeMath.sol\"; \nimport \"../node_modules/@openzeppelin/contracts/access/Ownable.sol\"; \n\ncontract Wallet is Ownable {\n    using SafeMath for uint256;\n\n    //tokens will be represented by this struct\n    struct Token{\n        bytes32 ticker;\n        address tokenAddress;\n    }\n\n    //mapping from token ticker to token struct, plus an array containing all token tickers that the wallet contains\n    mapping (bytes32 => Token) public tokenMapping;\n    bytes32[] public tokenList;\n\n    //mapping from wallet user's address -> token ticker -> balance they hold in that token (we use bytes32 for ticker rather than string so we can compare)\n    mapping (address => mapping(bytes32 => uint256)) public balances; \n\n    //checks that the token has been added to the wallet by checking that it doesn't point to the zero address\n    modifier tokenExist(bytes32 ticker) {\n        require(tokenMapping[ticker].tokenAddress != address(0), \"Token does not exist\");\n        _;\n    }\n\n    //add a token to the wallet\n    function addToken(bytes32 ticker, address tokenAddress) onlyOwner external {\n        tokenMapping[ticker] = Token(ticker, tokenAddress);\n        tokenList.push(ticker);\n    }\n\n    //deposits an amount of a specified token from the sender into the wallet - NEED TO MODIFY AND NEATEN UP!\n    function deposit(uint amount, bytes32 ticker) tokenExist(ticker) external { //\n        //checks\n        //require(IERC20(tokenMapping[ticker].tokenAddress).balanceOf(msg.sender) >= amount); //require that depositor has sufficient funds \n\n        //effects\n        \n        //interactions\n        IERC20(tokenMapping[ticker].tokenAddress).transferFrom(msg.sender, address(this), amount); //we send tokens from the user address to the wallet address - how do we get permission?\n        balances[msg.sender][ticker] = balances[msg.sender][ticker].add(amount); //change the balance of this user\n    }\n\n    //withdraws a certain amount of a specified token from the wallet to the sender (caller?)\n    function withdraw(uint amount, bytes32 ticker) tokenExist(ticker) external {\n        //checks\n        require (balances[msg.sender][ticker] >= amount, \"Balance not sufficient\");\n\n        //effects\n        balances[msg.sender][ticker] = balances[msg.sender][ticker].sub(amount); //change the balance of this user\n        \n        //interactions\n        IERC20(tokenMapping[ticker].tokenAddress).transfer(msg.sender, amount); //we send tokens back from the wallet address to the user address (msg.sender)\n    }\n\n    //a special function for depositing ETH (the native token) as opposed to any other ERC20 token - this looks like a play function, but then why is it payable??\n    function depositEth() payable external {\n        balances[msg.sender][bytes32(\"ETH\")] = balances[msg.sender][bytes32(\"ETH\")].add(msg.value);\n    }\n    \n    //a special function for withdrawing ETH from the wallet back to the sender/caller\n    function withdrawEth(uint amount) external {\n        //checks\n        require(balances[msg.sender][bytes32(\"ETH\")] >= amount,'Insufficient balance'); \n        //effects\n        balances[msg.sender][bytes32(\"ETH\")] = balances[msg.sender][bytes32(\"ETH\")].sub(amount);\n        msg.sender.call{value:amount}(\"\"); //not sure what this does??\n    }\n\n    function getTokenList() view public returns (bytes32[] memory) {\n        return tokenList;\n    }\n\n    function getBalance(address owner, bytes32 ticker) view public returns (uint) {\n        return balances[owner][ticker];\n    }\n}",
  "sourcePath": "/Users/richardjamieson/Documents/ethereum-201/Dex/contracts/wallet.sol",
  "compiler": {
    "name": "solc",
    "version": "0.8.4+commit.c7e474f2.Emscripten.clang"
  },
  "schemaVersion": "3.3.4",
  "updatedAt": "2021-05-07T13:07:48.132Z",
  "networkType": "ethereum",
  "devdoc": {
    "kind": "dev",
    "methods": {
      "owner()": {
        "details": "Returns the address of the current owner."
      },
      "renounceOwnership()": {
        "details": "Leaves the contract without owner. It will not be possible to call `onlyOwner` functions anymore. Can only be called by the current owner. NOTE: Renouncing ownership will leave the contract without an owner, thereby removing any functionality that is only available to the owner."
      },
      "transferOwnership(address)": {
        "details": "Transfers ownership of the contract to a new account (`newOwner`). Can only be called by the current owner."
      }
    },
    "version": 1
  },
  "userdoc": {
    "kind": "user",
    "methods": {},
    "version": 1
  }
}